{
  "_format": "hh-sol-artifact-1",
  "contractName": "StorageV1",
  "sourceName": "contracts/StorageV1.sol",
  "abi": [
    {
      "anonymous": false,
      "inputs": [
        {
          "indexed": false,
          "internalType": "address",
          "name": "previousAdmin",
          "type": "address"
        },
        {
          "indexed": false,
          "internalType": "address",
          "name": "newAdmin",
          "type": "address"
        }
      ],
      "name": "AdminChanged",
      "type": "event"
    },
    {
      "anonymous": false,
      "inputs": [
        {
          "indexed": true,
          "internalType": "address",
          "name": "beacon",
          "type": "address"
        }
      ],
      "name": "BeaconUpgraded",
      "type": "event"
    },
    {
      "anonymous": false,
      "inputs": [
        {
          "indexed": true,
          "internalType": "address",
          "name": "account",
          "type": "address"
        },
        {
          "indexed": false,
          "internalType": "string",
          "name": "data1",
          "type": "string"
        }
      ],
      "name": "Data1Set",
      "type": "event"
    },
    {
      "anonymous": false,
      "inputs": [
        {
          "indexed": true,
          "internalType": "address",
          "name": "previousOwner",
          "type": "address"
        },
        {
          "indexed": true,
          "internalType": "address",
          "name": "newOwner",
          "type": "address"
        }
      ],
      "name": "OwnershipTransferred",
      "type": "event"
    },
    {
      "anonymous": false,
      "inputs": [
        {
          "indexed": true,
          "internalType": "address",
          "name": "implementation",
          "type": "address"
        }
      ],
      "name": "Upgraded",
      "type": "event"
    },
    {
      "inputs": [],
      "name": "getData1",
      "outputs": [
        {
          "internalType": "string",
          "name": "",
          "type": "string"
        }
      ],
      "stateMutability": "view",
      "type": "function"
    },
    {
      "inputs": [],
      "name": "initialize",
      "outputs": [],
      "stateMutability": "nonpayable",
      "type": "function"
    },
    {
      "inputs": [],
      "name": "owner",
      "outputs": [
        {
          "internalType": "address",
          "name": "",
          "type": "address"
        }
      ],
      "stateMutability": "view",
      "type": "function"
    },
    {
      "inputs": [],
      "name": "renounceOwnership",
      "outputs": [],
      "stateMutability": "nonpayable",
      "type": "function"
    },
    {
      "inputs": [
        {
          "internalType": "string",
          "name": "data1_",
          "type": "string"
        }
      ],
      "name": "setData1",
      "outputs": [],
      "stateMutability": "nonpayable",
      "type": "function"
    },
    {
      "inputs": [
        {
          "internalType": "address",
          "name": "newOwner",
          "type": "address"
        }
      ],
      "name": "transferOwnership",
      "outputs": [],
      "stateMutability": "nonpayable",
      "type": "function"
    },
    {
      "inputs": [
        {
          "internalType": "address",
          "name": "newImplementation",
          "type": "address"
        }
      ],
      "name": "upgradeTo",
      "outputs": [],
      "stateMutability": "nonpayable",
      "type": "function"
    },
    {
      "inputs": [
        {
          "internalType": "address",
          "name": "newImplementation",
          "type": "address"
        },
        {
          "internalType": "bytes",
          "name": "data",
          "type": "bytes"
        }
      ],
      "name": "upgradeToAndCall",
      "outputs": [],
      "stateMutability": "payable",
      "type": "function"
    },
    {
      "inputs": [],
      "name": "version",
      "outputs": [
        {
          "internalType": "string",
          "name": "",
          "type": "string"
        }
      ],
      "stateMutability": "pure",
      "type": "function"
    }
  ],
  "bytecode": "0x608060405234801561001057600080fd5b50611739806100206000396000f3fe6080604052600436106100865760003560e01c8063715018a611610059578063715018a6146101245780638129fc1c1461013b5780638da5cb5b146101525780639944cc711461017d578063f2fde38b146101a857610086565b80630745f9d51461008b5780633659cfe6146100b45780634f1ef286146100dd57806354fd4d50146100f9575b600080fd5b34801561009757600080fd5b506100b260048036038101906100ad9190611072565b6101d1565b005b3480156100c057600080fd5b506100db60048036038101906100d69190610ff5565b610239565b005b6100f760048036038101906100f2919061101e565b610260565b005b34801561010557600080fd5b5061010e610279565b60405161011b9190611230565b60405180910390f35b34801561013057600080fd5b506101396102b6565b005b34801561014757600080fd5b5061015061033e565b005b34801561015e57600080fd5b5061016761041f565b6040516101749190611215565b60405180910390f35b34801561018957600080fd5b50610192610449565b60405161019f9190611230565b60405180910390f35b3480156101b457600080fd5b506101cf60048036038101906101ca9190610ff5565b6104db565b005b8060c990805190602001906101e7929190610e6d565b503373ffffffffffffffffffffffffffffffffffffffff167fb449e04aabb28b2a86020d65554ca6ecfe8e3e06f6907a794064520efbdab7e28260405161022e9190611230565b60405180910390a250565b610242816105d3565b61025d81604051806020016040528060008152506000610652565b50565b610269826105d3565b61027582826001610652565b5050565b60606040518060400160405280600481526020017f76312e3000000000000000000000000000000000000000000000000000000000815250905090565b6102be610823565b73ffffffffffffffffffffffffffffffffffffffff166102dc61041f565b73ffffffffffffffffffffffffffffffffffffffff1614610332576040517f08c379a0000000000000000000000000000000000000000000000000000000008152600401610329906112d2565b60405180910390fd5b61033c600061082b565b565b600060019054906101000a900460ff1680610364575060008054906101000a900460ff16155b6103a3576040517f08c379a000000000000000000000000000000000000000000000000000000000815260040161039a90611292565b60405180910390fd5b60008060019054906101000a900460ff1615905080156103f3576001600060016101000a81548160ff02191690831515021790555060016000806101000a81548160ff0219169083151502179055505b6103fb6108f1565b801561041c5760008060016101000a81548160ff0219169083151502179055505b50565b6000603360009054906101000a900473ffffffffffffffffffffffffffffffffffffffff16905090565b606060c980546104589061143f565b80601f01602080910402602001604051908101604052809291908181526020018280546104849061143f565b80156104d15780601f106104a6576101008083540402835291602001916104d1565b820191906000526020600020905b8154815290600101906020018083116104b457829003601f168201915b5050505050905090565b6104e3610823565b73ffffffffffffffffffffffffffffffffffffffff1661050161041f565b73ffffffffffffffffffffffffffffffffffffffff1614610557576040517f08c379a000000000000000000000000000000000000000000000000000000000815260040161054e906112d2565b60405180910390fd5b600073ffffffffffffffffffffffffffffffffffffffff168173ffffffffffffffffffffffffffffffffffffffff1614156105c7576040517f08c379a00000000000000000000000000000000000000000000000000000000081526004016105be90611272565b60405180910390fd5b6105d08161082b565b50565b6105db610823565b73ffffffffffffffffffffffffffffffffffffffff166105f961041f565b73ffffffffffffffffffffffffffffffffffffffff161461064f576040517f08c379a0000000000000000000000000000000000000000000000000000000008152600401610646906112d2565b60405180910390fd5b50565b600061065c6109da565b905061066784610a31565b6000835111806106745750815b15610685576106838484610aea565b505b60006106b37f4910fdfa16fed3260ed0e7147f7cc6da11a60208b5b9406d12a635614ffd914360001b610bce565b90508060000160009054906101000a900460ff1661081c5760018160000160006101000a81548160ff02191690831515021790555061077f85836040516024016106fd9190611215565b6040516020818303038152906040527f3659cfe6000000000000000000000000000000000000000000000000000000007bffffffffffffffffffffffffffffffffffffffffffffffffffffffff19166020820180517bffffffffffffffffffffffffffffffffffffffffffffffffffffffff8381831617835250505050610aea565b5060008160000160006101000a81548160ff0219169083151502179055506107a56109da565b73ffffffffffffffffffffffffffffffffffffffff168273ffffffffffffffffffffffffffffffffffffffff1614610812576040517f08c379a000000000000000000000000000000000000000000000000000000000815260040161080990611252565b60405180910390fd5b61081b85610bd8565b5b5050505050565b600033905090565b6000603360009054906101000a900473ffffffffffffffffffffffffffffffffffffffff16905081603360006101000a81548173ffffffffffffffffffffffffffffffffffffffff021916908373ffffffffffffffffffffffffffffffffffffffff1602179055508173ffffffffffffffffffffffffffffffffffffffff168173ffffffffffffffffffffffffffffffffffffffff167f8be0079c531659141344cd1fd0a4f28419497f9722a3daafe3b4186f6b6457e060405160405180910390a35050565b600060019054906101000a900460ff1680610917575060008054906101000a900460ff16155b610956576040517f08c379a000000000000000000000000000000000000000000000000000000000815260040161094d90611292565b60405180910390fd5b60008060019054906101000a900460ff1615905080156109a6576001600060016101000a81548160ff02191690831515021790555060016000806101000a81548160ff0219169083151502179055505b6109ae610c27565b6109b6610d00565b80156109d75760008060016101000a81548160ff0219169083151502179055505b50565b6000610a087f360894a13ba1a3210667c828492db98dca3e2076cc3735a920a3ca505d382bbc60001b610de9565b60000160009054906101000a900473ffffffffffffffffffffffffffffffffffffffff16905090565b610a3a81610df3565b610a79576040517f08c379a0000000000000000000000000000000000000000000000000000000008152600401610a70906112b2565b60405180910390fd5b80610aa67f360894a13ba1a3210667c828492db98dca3e2076cc3735a920a3ca505d382bbc60001b610de9565b60000160006101000a81548173ffffffffffffffffffffffffffffffffffffffff021916908373ffffffffffffffffffffffffffffffffffffffff16021790555050565b6060610af583610df3565b610b34576040517f08c379a0000000000000000000000000000000000000000000000000000000008152600401610b2b906112f2565b60405180910390fd5b6000808473ffffffffffffffffffffffffffffffffffffffff1684604051610b5c91906111fe565b600060405180830381855af49150503d8060008114610b97576040519150601f19603f3d011682016040523d82523d6000602084013e610b9c565b606091505b5091509150610bc482826040518060600160405280602781526020016116dd60279139610e06565b9250505092915050565b6000819050919050565b610be181610a31565b8073ffffffffffffffffffffffffffffffffffffffff167fbc7cd75a20ee27fd9adebab32041f755214dbc6bffa90cc0225b39da2e5c2d3b60405160405180910390a250565b600060019054906101000a900460ff1680610c4d575060008054906101000a900460ff16155b610c8c576040517f08c379a0000000000000000000000000000000000000000000000000000000008152600401610c8390611292565b60405180910390fd5b60008060019054906101000a900460ff161590508015610cdc576001600060016101000a81548160ff02191690831515021790555060016000806101000a81548160ff0219169083151502179055505b8015610cfd5760008060016101000a81548160ff0219169083151502179055505b50565b600060019054906101000a900460ff1680610d26575060008054906101000a900460ff16155b610d65576040517f08c379a0000000000000000000000000000000000000000000000000000000008152600401610d5c90611292565b60405180910390fd5b60008060019054906101000a900460ff161590508015610db5576001600060016101000a81548160ff02191690831515021790555060016000806101000a81548160ff0219169083151502179055505b610dc5610dc0610823565b61082b565b8015610de65760008060016101000a81548160ff0219169083151502179055505b50565b6000819050919050565b600080823b905060008111915050919050565b60608315610e1657829050610e66565b600083511115610e295782518084602001fd5b816040517f08c379a0000000000000000000000000000000000000000000000000000000008152600401610e5d9190611230565b60405180910390fd5b9392505050565b828054610e799061143f565b90600052602060002090601f016020900481019282610e9b5760008555610ee2565b82601f10610eb457805160ff1916838001178555610ee2565b82800160010185558215610ee2579182015b82811115610ee1578251825591602001919060010190610ec6565b5b509050610eef9190610ef3565b5090565b5b80821115610f0c576000816000905550600101610ef4565b5090565b6000610f23610f1e84611337565b611312565b905082815260208101848484011115610f3b57600080fd5b610f468482856113fd565b509392505050565b6000610f61610f5c84611368565b611312565b905082815260208101848484011115610f7957600080fd5b610f848482856113fd565b509392505050565b600081359050610f9b816116c5565b92915050565b600082601f830112610fb257600080fd5b8135610fc2848260208601610f10565b91505092915050565b600082601f830112610fdc57600080fd5b8135610fec848260208601610f4e565b91505092915050565b60006020828403121561100757600080fd5b600061101584828501610f8c565b91505092915050565b6000806040838503121561103157600080fd5b600061103f85828601610f8c565b925050602083013567ffffffffffffffff81111561105c57600080fd5b61106885828601610fa1565b9150509250929050565b60006020828403121561108457600080fd5b600082013567ffffffffffffffff81111561109e57600080fd5b6110aa84828501610fcb565b91505092915050565b6110bc816113cb565b82525050565b60006110cd82611399565b6110d781856113af565b93506110e781856020860161140c565b80840191505092915050565b60006110fe826113a4565b61110881856113ba565b935061111881856020860161140c565b61112181611500565b840191505092915050565b6000611139602f836113ba565b915061114482611511565b604082019050919050565b600061115c6026836113ba565b915061116782611560565b604082019050919050565b600061117f602e836113ba565b915061118a826115af565b604082019050919050565b60006111a2602d836113ba565b91506111ad826115fe565b604082019050919050565b60006111c56020836113ba565b91506111d08261164d565b602082019050919050565b60006111e86026836113ba565b91506111f382611676565b604082019050919050565b600061120a82846110c2565b915081905092915050565b600060208201905061122a60008301846110b3565b92915050565b6000602082019050818103600083015261124a81846110f3565b905092915050565b6000602082019050818103600083015261126b8161112c565b9050919050565b6000602082019050818103600083015261128b8161114f565b9050919050565b600060208201905081810360008301526112ab81611172565b9050919050565b600060208201905081810360008301526112cb81611195565b9050919050565b600060208201905081810360008301526112eb816111b8565b9050919050565b6000602082019050818103600083015261130b816111db565b9050919050565b600061131c61132d565b90506113288282611471565b919050565b6000604051905090565b600067ffffffffffffffff821115611352576113516114d1565b5b61135b82611500565b9050602081019050919050565b600067ffffffffffffffff821115611383576113826114d1565b5b61138c82611500565b9050602081019050919050565b600081519050919050565b600081519050919050565b600081905092915050565b600082825260208201905092915050565b60006113d6826113dd565b9050919050565b600073ffffffffffffffffffffffffffffffffffffffff82169050919050565b82818337600083830152505050565b60005b8381101561142a57808201518184015260208101905061140f565b83811115611439576000848401525b50505050565b6000600282049050600182168061145757607f821691505b6020821081141561146b5761146a6114a2565b5b50919050565b61147a82611500565b810181811067ffffffffffffffff82111715611499576114986114d1565b5b80604052505050565b7f4e487b7100000000000000000000000000000000000000000000000000000000600052602260045260246000fd5b7f4e487b7100000000000000000000000000000000000000000000000000000000600052604160045260246000fd5b6000601f19601f8301169050919050565b7f45524331393637557067726164653a207570677261646520627265616b73206660008201527f7572746865722075706772616465730000000000000000000000000000000000602082015250565b7f4f776e61626c653a206e6577206f776e657220697320746865207a65726f206160008201527f6464726573730000000000000000000000000000000000000000000000000000602082015250565b7f496e697469616c697a61626c653a20636f6e747261637420697320616c72656160008201527f647920696e697469616c697a6564000000000000000000000000000000000000602082015250565b7f455243313936373a206e657720696d706c656d656e746174696f6e206973206e60008201527f6f74206120636f6e747261637400000000000000000000000000000000000000602082015250565b7f4f776e61626c653a2063616c6c6572206973206e6f7420746865206f776e6572600082015250565b7f416464726573733a2064656c65676174652063616c6c20746f206e6f6e2d636f60008201527f6e74726163740000000000000000000000000000000000000000000000000000602082015250565b6116ce816113cb565b81146116d957600080fd5b5056fe416464726573733a206c6f772d6c6576656c2064656c65676174652063616c6c206661696c6564a2646970667358221220fc8f40d602115915958d1b61636ab3efc6edee2743e71586109c730e2327186464736f6c63430008020033",
  "linkReferences": {},
  "deployedLinkReferences": {}
}