{
  "@acala-network/contracts/utils/Address.sol": {
    "ADDRESS": {
      "abi": [
        {
          "inputs": [],
          "name": "ACA",
          "outputs": [
            {
              "internalType": "address",
              "name": "",
              "type": "address"
            }
          ],
          "stateMutability": "view",
          "type": "function"
        },
        {
          "inputs": [],
          "name": "AUSD",
          "outputs": [
            {
              "internalType": "address",
              "name": "",
              "type": "address"
            }
          ],
          "stateMutability": "view",
          "type": "function"
        },
        {
          "inputs": [],
          "name": "CASH",
          "outputs": [
            {
              "internalType": "address",
              "name": "",
              "type": "address"
            }
          ],
          "stateMutability": "view",
          "type": "function"
        },
        {
          "inputs": [],
          "name": "DEX",
          "outputs": [
            {
              "internalType": "address",
              "name": "",
              "type": "address"
            }
          ],
          "stateMutability": "view",
          "type": "function"
        },
        {
          "inputs": [],
          "name": "DOT",
          "outputs": [
            {
              "internalType": "address",
              "name": "",
              "type": "address"
            }
          ],
          "stateMutability": "view",
          "type": "function"
        },
        {
          "inputs": [],
          "name": "KAR",
          "outputs": [
            {
              "internalType": "address",
              "name": "",
              "type": "address"
            }
          ],
          "stateMutability": "view",
          "type": "function"
        },
        {
          "inputs": [],
          "name": "KSM",
          "outputs": [
            {
              "internalType": "address",
              "name": "",
              "type": "address"
            }
          ],
          "stateMutability": "view",
          "type": "function"
        },
        {
          "inputs": [],
          "name": "KUSD",
          "outputs": [
            {
              "internalType": "address",
              "name": "",
              "type": "address"
            }
          ],
          "stateMutability": "view",
          "type": "function"
        },
        {
          "inputs": [],
          "name": "LDOT",
          "outputs": [
            {
              "internalType": "address",
              "name": "",
              "type": "address"
            }
          ],
          "stateMutability": "view",
          "type": "function"
        },
        {
          "inputs": [],
          "name": "LKSM",
          "outputs": [
            {
              "internalType": "address",
              "name": "",
              "type": "address"
            }
          ],
          "stateMutability": "view",
          "type": "function"
        },
        {
          "inputs": [],
          "name": "LP_ACA_AUSD",
          "outputs": [
            {
              "internalType": "address",
              "name": "",
              "type": "address"
            }
          ],
          "stateMutability": "view",
          "type": "function"
        },
        {
          "inputs": [],
          "name": "LP_DOT_AUSD",
          "outputs": [
            {
              "internalType": "address",
              "name": "",
              "type": "address"
            }
          ],
          "stateMutability": "view",
          "type": "function"
        },
        {
          "inputs": [],
          "name": "LP_KAR_KUSD",
          "outputs": [
            {
              "internalType": "address",
              "name": "",
              "type": "address"
            }
          ],
          "stateMutability": "view",
          "type": "function"
        },
        {
          "inputs": [],
          "name": "LP_KSM_KUSD",
          "outputs": [
            {
              "internalType": "address",
              "name": "",
              "type": "address"
            }
          ],
          "stateMutability": "view",
          "type": "function"
        },
        {
          "inputs": [],
          "name": "LP_LDOT_AUSD",
          "outputs": [
            {
              "internalType": "address",
              "name": "",
              "type": "address"
            }
          ],
          "stateMutability": "view",
          "type": "function"
        },
        {
          "inputs": [],
          "name": "LP_LKSM_KUSD",
          "outputs": [
            {
              "internalType": "address",
              "name": "",
              "type": "address"
            }
          ],
          "stateMutability": "view",
          "type": "function"
        },
        {
          "inputs": [],
          "name": "LP_RENBTC_AUSD",
          "outputs": [
            {
              "internalType": "address",
              "name": "",
              "type": "address"
            }
          ],
          "stateMutability": "view",
          "type": "function"
        },
        {
          "inputs": [],
          "name": "Oracle",
          "outputs": [
            {
              "internalType": "address",
              "name": "",
              "type": "address"
            }
          ],
          "stateMutability": "view",
          "type": "function"
        },
        {
          "inputs": [],
          "name": "RENBTC",
          "outputs": [
            {
              "internalType": "address",
              "name": "",
              "type": "address"
            }
          ],
          "stateMutability": "view",
          "type": "function"
        },
        {
          "inputs": [],
          "name": "Schedule",
          "outputs": [
            {
              "internalType": "address",
              "name": "",
              "type": "address"
            }
          ],
          "stateMutability": "view",
          "type": "function"
        },
        {
          "inputs": [],
          "name": "StateRent",
          "outputs": [
            {
              "internalType": "address",
              "name": "",
              "type": "address"
            }
          ],
          "stateMutability": "view",
          "type": "function"
        },
        {
          "inputs": [],
          "name": "Token",
          "outputs": [
            {
              "internalType": "address",
              "name": "",
              "type": "address"
            }
          ],
          "stateMutability": "view",
          "type": "function"
        }
      ],
      "devdoc": {
        "kind": "dev",
        "methods": {},
        "version": 1
      },
      "evm": {
        "bytecode": {
          "linkReferences": {},
          "object": "608060405234801561001057600080fd5b50610536806100206000396000f3fe608060405234801561001057600080fd5b50600436106101425760003560e01c8063a5770a54116100b8578063c24126761161007c578063c241267614610327578063c30054c014610345578063c496981514610363578063d7f269fe14610381578063e18b7ac51461039f578063f24a534e146103bd57610142565b8063a5770a5414610291578063b0dadb7b146102af578063b3d27bc5146102cd578063b5c88e4d146102eb578063bacbd7cc1461030957610142565b806336e029501161010a57806336e02950146101dd5780635d499e82146101fb5780636022c7ab1461021957806380935aa91461023757806380bd60e814610255578063a1b562261461027357610142565b80630a4cad6b1461014757806318ad37af1461016557806318dca9ba146101835780631f927675146101a15780632fd7d1fd146101bf575b600080fd5b61014f6103db565b60405161015c91906104b3565b60405180910390f35b61016d6103e8565b60405161017a91906104b3565b60405180910390f35b61018b6103f0565b60405161019891906104b3565b60405180910390f35b6101a96103fd565b6040516101b691906104b3565b60405180910390f35b6101c7610405565b6040516101d491906104b3565b60405180910390f35b6101e561040d565b6040516101f291906104b3565b60405180910390f35b610203610415565b60405161021091906104b3565b60405180910390f35b610221610422565b60405161022e91906104b3565b60405180910390f35b61023f61042a565b60405161024c91906104b3565b60405180910390f35b61025d610430565b60405161026a91906104b3565b60405180910390f35b61027b61043d565b60405161028891906104b3565b60405180910390f35b610299610445565b6040516102a691906104b3565b60405180910390f35b6102b7610452565b6040516102c491906104b3565b60405180910390f35b6102d5610458565b6040516102e291906104b3565b60405180910390f35b6102f3610460565b60405161030091906104b3565b60405180910390f35b610311610466565b60405161031e91906104b3565b60405180910390f35b61032f610473565b60405161033c91906104b3565b60405180910390f35b61034d610479565b60405161035a91906104b3565b60405180910390f35b61036b610481565b60405161037891906104b3565b60405180910390f35b610389610489565b60405161039691906104b3565b60405180910390f35b6103a7610491565b6040516103b491906104b3565b60405180910390f35b6103c561049e565b6040516103d291906104b3565b60405180910390f35b6801000000020000000181565b630100008181565b6801000000140000000181565b630100008381565b630100000181565b630100000281565b6801000000820000008181565b630100000381565b61080481565b6801000000800000008181565b630100000081565b6801000000000000000181565b61080381565b630100008081565b61080181565b6801000000830000008181565b61080081565b630100008281565b630100001581565b630100001481565b6801000000030000000181565b61080281565b6104ad816104ce565b82525050565b60006020820190506104c860008301846104a4565b92915050565b60006104d9826104e0565b9050919050565b600073ffffffffffffffffffffffffffffffffffffffff8216905091905056fea2646970667358221220db024c70fa35af40c5e493fe2d0aa598190a943477143dec2a393bbe7b39165464736f6c63430008000033",
          "opcodes": "PUSH1 0x80 PUSH1 0x40 MSTORE CALLVALUE DUP1 ISZERO PUSH2 0x10 JUMPI PUSH1 0x0 DUP1 REVERT JUMPDEST POP PUSH2 0x536 DUP1 PUSH2 0x20 PUSH1 0x0 CODECOPY PUSH1 0x0 RETURN INVALID PUSH1 0x80 PUSH1 0x40 MSTORE CALLVALUE DUP1 ISZERO PUSH2 0x10 JUMPI PUSH1 0x0 DUP1 REVERT JUMPDEST POP PUSH1 0x4 CALLDATASIZE LT PUSH2 0x142 JUMPI PUSH1 0x0 CALLDATALOAD PUSH1 0xE0 SHR DUP1 PUSH4 0xA5770A54 GT PUSH2 0xB8 JUMPI DUP1 PUSH4 0xC2412676 GT PUSH2 0x7C JUMPI DUP1 PUSH4 0xC2412676 EQ PUSH2 0x327 JUMPI DUP1 PUSH4 0xC30054C0 EQ PUSH2 0x345 JUMPI DUP1 PUSH4 0xC4969815 EQ PUSH2 0x363 JUMPI DUP1 PUSH4 0xD7F269FE EQ PUSH2 0x381 JUMPI DUP1 PUSH4 0xE18B7AC5 EQ PUSH2 0x39F JUMPI DUP1 PUSH4 0xF24A534E EQ PUSH2 0x3BD JUMPI PUSH2 0x142 JUMP JUMPDEST DUP1 PUSH4 0xA5770A54 EQ PUSH2 0x291 JUMPI DUP1 PUSH4 0xB0DADB7B EQ PUSH2 0x2AF JUMPI DUP1 PUSH4 0xB3D27BC5 EQ PUSH2 0x2CD JUMPI DUP1 PUSH4 0xB5C88E4D EQ PUSH2 0x2EB JUMPI DUP1 PUSH4 0xBACBD7CC EQ PUSH2 0x309 JUMPI PUSH2 0x142 JUMP JUMPDEST DUP1 PUSH4 0x36E02950 GT PUSH2 0x10A JUMPI DUP1 PUSH4 0x36E02950 EQ PUSH2 0x1DD JUMPI DUP1 PUSH4 0x5D499E82 EQ PUSH2 0x1FB JUMPI DUP1 PUSH4 0x6022C7AB EQ PUSH2 0x219 JUMPI DUP1 PUSH4 0x80935AA9 EQ PUSH2 0x237 JUMPI DUP1 PUSH4 0x80BD60E8 EQ PUSH2 0x255 JUMPI DUP1 PUSH4 0xA1B56226 EQ PUSH2 0x273 JUMPI PUSH2 0x142 JUMP JUMPDEST DUP1 PUSH4 0xA4CAD6B EQ PUSH2 0x147 JUMPI DUP1 PUSH4 0x18AD37AF EQ PUSH2 0x165 JUMPI DUP1 PUSH4 0x18DCA9BA EQ PUSH2 0x183 JUMPI DUP1 PUSH4 0x1F927675 EQ PUSH2 0x1A1 JUMPI DUP1 PUSH4 0x2FD7D1FD EQ PUSH2 0x1BF JUMPI JUMPDEST PUSH1 0x0 DUP1 REVERT JUMPDEST PUSH2 0x14F PUSH2 0x3DB JUMP JUMPDEST PUSH1 0x40 MLOAD PUSH2 0x15C SWAP2 SWAP1 PUSH2 0x4B3 JUMP JUMPDEST PUSH1 0x40 MLOAD DUP1 SWAP2 SUB SWAP1 RETURN JUMPDEST PUSH2 0x16D PUSH2 0x3E8 JUMP JUMPDEST PUSH1 0x40 MLOAD PUSH2 0x17A SWAP2 SWAP1 PUSH2 0x4B3 JUMP JUMPDEST PUSH1 0x40 MLOAD DUP1 SWAP2 SUB SWAP1 RETURN JUMPDEST PUSH2 0x18B PUSH2 0x3F0 JUMP JUMPDEST PUSH1 0x40 MLOAD PUSH2 0x198 SWAP2 SWAP1 PUSH2 0x4B3 JUMP JUMPDEST PUSH1 0x40 MLOAD DUP1 SWAP2 SUB SWAP1 RETURN JUMPDEST PUSH2 0x1A9 PUSH2 0x3FD JUMP JUMPDEST PUSH1 0x40 MLOAD PUSH2 0x1B6 SWAP2 SWAP1 PUSH2 0x4B3 JUMP JUMPDEST PUSH1 0x40 MLOAD DUP1 SWAP2 SUB SWAP1 RETURN JUMPDEST PUSH2 0x1C7 PUSH2 0x405 JUMP JUMPDEST PUSH1 0x40 MLOAD PUSH2 0x1D4 SWAP2 SWAP1 PUSH2 0x4B3 JUMP JUMPDEST PUSH1 0x40 MLOAD DUP1 SWAP2 SUB SWAP1 RETURN JUMPDEST PUSH2 0x1E5 PUSH2 0x40D JUMP JUMPDEST PUSH1 0x40 MLOAD PUSH2 0x1F2 SWAP2 SWAP1 PUSH2 0x4B3 JUMP JUMPDEST PUSH1 0x40 MLOAD DUP1 SWAP2 SUB SWAP1 RETURN JUMPDEST PUSH2 0x203 PUSH2 0x415 JUMP JUMPDEST PUSH1 0x40 MLOAD PUSH2 0x210 SWAP2 SWAP1 PUSH2 0x4B3 JUMP JUMPDEST PUSH1 0x40 MLOAD DUP1 SWAP2 SUB SWAP1 RETURN JUMPDEST PUSH2 0x221 PUSH2 0x422 JUMP JUMPDEST PUSH1 0x40 MLOAD PUSH2 0x22E SWAP2 SWAP1 PUSH2 0x4B3 JUMP JUMPDEST PUSH1 0x40 MLOAD DUP1 SWAP2 SUB SWAP1 RETURN JUMPDEST PUSH2 0x23F PUSH2 0x42A JUMP JUMPDEST PUSH1 0x40 MLOAD PUSH2 0x24C SWAP2 SWAP1 PUSH2 0x4B3 JUMP JUMPDEST PUSH1 0x40 MLOAD DUP1 SWAP2 SUB SWAP1 RETURN JUMPDEST PUSH2 0x25D PUSH2 0x430 JUMP JUMPDEST PUSH1 0x40 MLOAD PUSH2 0x26A SWAP2 SWAP1 PUSH2 0x4B3 JUMP JUMPDEST PUSH1 0x40 MLOAD DUP1 SWAP2 SUB SWAP1 RETURN JUMPDEST PUSH2 0x27B PUSH2 0x43D JUMP JUMPDEST PUSH1 0x40 MLOAD PUSH2 0x288 SWAP2 SWAP1 PUSH2 0x4B3 JUMP JUMPDEST PUSH1 0x40 MLOAD DUP1 SWAP2 SUB SWAP1 RETURN JUMPDEST PUSH2 0x299 PUSH2 0x445 JUMP JUMPDEST PUSH1 0x40 MLOAD PUSH2 0x2A6 SWAP2 SWAP1 PUSH2 0x4B3 JUMP JUMPDEST PUSH1 0x40 MLOAD DUP1 SWAP2 SUB SWAP1 RETURN JUMPDEST PUSH2 0x2B7 PUSH2 0x452 JUMP JUMPDEST PUSH1 0x40 MLOAD PUSH2 0x2C4 SWAP2 SWAP1 PUSH2 0x4B3 JUMP JUMPDEST PUSH1 0x40 MLOAD DUP1 SWAP2 SUB SWAP1 RETURN JUMPDEST PUSH2 0x2D5 PUSH2 0x458 JUMP JUMPDEST PUSH1 0x40 MLOAD PUSH2 0x2E2 SWAP2 SWAP1 PUSH2 0x4B3 JUMP JUMPDEST PUSH1 0x40 MLOAD DUP1 SWAP2 SUB SWAP1 RETURN JUMPDEST PUSH2 0x2F3 PUSH2 0x460 JUMP JUMPDEST PUSH1 0x40 MLOAD PUSH2 0x300 SWAP2 SWAP1 PUSH2 0x4B3 JUMP JUMPDEST PUSH1 0x40 MLOAD DUP1 SWAP2 SUB SWAP1 RETURN JUMPDEST PUSH2 0x311 PUSH2 0x466 JUMP JUMPDEST PUSH1 0x40 MLOAD PUSH2 0x31E SWAP2 SWAP1 PUSH2 0x4B3 JUMP JUMPDEST PUSH1 0x40 MLOAD DUP1 SWAP2 SUB SWAP1 RETURN JUMPDEST PUSH2 0x32F PUSH2 0x473 JUMP JUMPDEST PUSH1 0x40 MLOAD PUSH2 0x33C SWAP2 SWAP1 PUSH2 0x4B3 JUMP JUMPDEST PUSH1 0x40 MLOAD DUP1 SWAP2 SUB SWAP1 RETURN JUMPDEST PUSH2 0x34D PUSH2 0x479 JUMP JUMPDEST PUSH1 0x40 MLOAD PUSH2 0x35A SWAP2 SWAP1 PUSH2 0x4B3 JUMP JUMPDEST PUSH1 0x40 MLOAD DUP1 SWAP2 SUB SWAP1 RETURN JUMPDEST PUSH2 0x36B PUSH2 0x481 JUMP JUMPDEST PUSH1 0x40 MLOAD PUSH2 0x378 SWAP2 SWAP1 PUSH2 0x4B3 JUMP JUMPDEST PUSH1 0x40 MLOAD DUP1 SWAP2 SUB SWAP1 RETURN JUMPDEST PUSH2 0x389 PUSH2 0x489 JUMP JUMPDEST PUSH1 0x40 MLOAD PUSH2 0x396 SWAP2 SWAP1 PUSH2 0x4B3 JUMP JUMPDEST PUSH1 0x40 MLOAD DUP1 SWAP2 SUB SWAP1 RETURN JUMPDEST PUSH2 0x3A7 PUSH2 0x491 JUMP JUMPDEST PUSH1 0x40 MLOAD PUSH2 0x3B4 SWAP2 SWAP1 PUSH2 0x4B3 JUMP JUMPDEST PUSH1 0x40 MLOAD DUP1 SWAP2 SUB SWAP1 RETURN JUMPDEST PUSH2 0x3C5 PUSH2 0x49E JUMP JUMPDEST PUSH1 0x40 MLOAD PUSH2 0x3D2 SWAP2 SWAP1 PUSH2 0x4B3 JUMP JUMPDEST PUSH1 0x40 MLOAD DUP1 SWAP2 SUB SWAP1 RETURN JUMPDEST PUSH9 0x10000000200000001 DUP2 JUMP JUMPDEST PUSH4 0x1000081 DUP2 JUMP JUMPDEST PUSH9 0x10000001400000001 DUP2 JUMP JUMPDEST PUSH4 0x1000083 DUP2 JUMP JUMPDEST PUSH4 0x1000001 DUP2 JUMP JUMPDEST PUSH4 0x1000002 DUP2 JUMP JUMPDEST PUSH9 0x10000008200000081 DUP2 JUMP JUMPDEST PUSH4 0x1000003 DUP2 JUMP JUMPDEST PUSH2 0x804 DUP2 JUMP JUMPDEST PUSH9 0x10000008000000081 DUP2 JUMP JUMPDEST PUSH4 0x1000000 DUP2 JUMP JUMPDEST PUSH9 0x10000000000000001 DUP2 JUMP JUMPDEST PUSH2 0x803 DUP2 JUMP JUMPDEST PUSH4 0x1000080 DUP2 JUMP JUMPDEST PUSH2 0x801 DUP2 JUMP JUMPDEST PUSH9 0x10000008300000081 DUP2 JUMP JUMPDEST PUSH2 0x800 DUP2 JUMP JUMPDEST PUSH4 0x1000082 DUP2 JUMP JUMPDEST PUSH4 0x1000015 DUP2 JUMP JUMPDEST PUSH4 0x1000014 DUP2 JUMP JUMPDEST PUSH9 0x10000000300000001 DUP2 JUMP JUMPDEST PUSH2 0x802 DUP2 JUMP JUMPDEST PUSH2 0x4AD DUP2 PUSH2 0x4CE JUMP JUMPDEST DUP3 MSTORE POP POP JUMP JUMPDEST PUSH1 0x0 PUSH1 0x20 DUP3 ADD SWAP1 POP PUSH2 0x4C8 PUSH1 0x0 DUP4 ADD DUP5 PUSH2 0x4A4 JUMP JUMPDEST SWAP3 SWAP2 POP POP JUMP JUMPDEST PUSH1 0x0 PUSH2 0x4D9 DUP3 PUSH2 0x4E0 JUMP JUMPDEST SWAP1 POP SWAP2 SWAP1 POP JUMP JUMPDEST PUSH1 0x0 PUSH20 0xFFFFFFFFFFFFFFFFFFFFFFFFFFFFFFFFFFFFFFFF DUP3 AND SWAP1 POP SWAP2 SWAP1 POP JUMP INVALID LOG2 PUSH5 0x6970667358 0x22 SLT KECCAK256 0xDB MUL 0x4C PUSH17 0xFA35AF40C5E493FE2D0AA598190A943477 EQ RETURNDATASIZE 0xEC 0x2A CODECOPY EXTCODESIZE 0xBE PUSH28 0x39165464736F6C634300080000330000000000000000000000000000 "
        },
        "methodIdentifiers": {
          "ACA()": "a1b56226",
          "AUSD()": "2fd7d1fd",
          "CASH()": "c4969815",
          "DEX()": "80935aa9",
          "DOT()": "36e02950",
          "KAR()": "b3d27bc5",
          "KSM()": "c30054c0",
          "KUSD()": "18ad37af",
          "LDOT()": "6022c7ab",
          "LKSM()": "1f927675",
          "LP_ACA_AUSD()": "a5770a54",
          "LP_DOT_AUSD()": "0a4cad6b",
          "LP_KAR_KUSD()": "80bd60e8",
          "LP_KSM_KUSD()": "5d499e82",
          "LP_LDOT_AUSD()": "e18b7ac5",
          "LP_LKSM_KUSD()": "bacbd7cc",
          "LP_RENBTC_AUSD()": "18dca9ba",
          "Oracle()": "f24a534e",
          "RENBTC()": "d7f269fe",
          "Schedule()": "b0dadb7b",
          "StateRent()": "b5c88e4d",
          "Token()": "c2412676"
        }
      },
      "userdoc": {
        "kind": "user",
        "methods": {},
        "version": 1
      }
    }
  }
}