{
  "_format": "hh-sol-artifact-1",
  "contractName": "Storage",
  "sourceName": "contracts/Storage.sol",
  "abi": [
    {
      "inputs": [
        {
          "internalType": "string",
          "name": "data_",
          "type": "string"
        }
      ],
      "stateMutability": "nonpayable",
      "type": "constructor"
    },
    {
      "anonymous": false,
      "inputs": [
        {
          "indexed": true,
          "internalType": "address",
          "name": "account",
          "type": "address"
        },
        {
          "indexed": false,
          "internalType": "string",
          "name": "data1",
          "type": "string"
        }
      ],
      "name": "DataSet",
      "type": "event"
    },
    {
      "inputs": [],
      "name": "getData",
      "outputs": [
        {
          "internalType": "string",
          "name": "",
          "type": "string"
        }
      ],
      "stateMutability": "view",
      "type": "function"
    },
    {
      "inputs": [
        {
          "internalType": "string",
          "name": "data_",
          "type": "string"
        }
      ],
      "name": "setData",
      "outputs": [],
      "stateMutability": "nonpayable",
      "type": "function"
    }
  ],
  "bytecode": "0x608060405234801561001057600080fd5b50604051620007da380380620007da8339818101604052810190610034919061015c565b806000908051906020019061004a929190610051565b50506102f8565b82805461005d90610226565b90600052602060002090601f01602090048101928261007f57600085556100c6565b82601f1061009857805160ff19168380011785556100c6565b828001600101855582156100c6579182015b828111156100c55782518255916020019190600101906100aa565b5b5090506100d391906100d7565b5090565b5b808211156100f05760008160009055506001016100d8565b5090565b6000610107610102846101c2565b61019d565b90508281526020810184848401111561011f57600080fd5b61012a8482856101f3565b509392505050565b600082601f83011261014357600080fd5b81516101538482602086016100f4565b91505092915050565b60006020828403121561016e57600080fd5b600082015167ffffffffffffffff81111561018857600080fd5b61019484828501610132565b91505092915050565b60006101a76101b8565b90506101b38282610258565b919050565b6000604051905090565b600067ffffffffffffffff8211156101dd576101dc6102b8565b5b6101e6826102e7565b9050602081019050919050565b60005b838110156102115780820151818401526020810190506101f6565b83811115610220576000848401525b50505050565b6000600282049050600182168061023e57607f821691505b6020821081141561025257610251610289565b5b50919050565b610261826102e7565b810181811067ffffffffffffffff821117156102805761027f6102b8565b5b80604052505050565b7f4e487b7100000000000000000000000000000000000000000000000000000000600052602260045260246000fd5b7f4e487b7100000000000000000000000000000000000000000000000000000000600052604160045260246000fd5b6000601f19601f8301169050919050565b6104d280620003086000396000f3fe608060405234801561001057600080fd5b50600436106100365760003560e01c80633bc5de301461003b57806347064d6a14610059575b600080fd5b610043610075565b60405161005091906102f4565b60405180910390f35b610073600480360381019061006e919061027a565b610107565b005b606060008054610084906103ca565b80601f01602080910402602001604051908101604052809291908181526020018280546100b0906103ca565b80156100fd5780601f106100d2576101008083540402835291602001916100fd565b820191906000526020600020905b8154815290600101906020018083116100e057829003601f168201915b5050505050905090565b806000908051906020019061011d92919061016f565b503373ffffffffffffffffffffffffffffffffffffffff167f150183e5703e84d2fdb9942416f6b375833b0e47dd0c29ae9d2712f04aa668398260405161016491906102f4565b60405180910390a250565b82805461017b906103ca565b90600052602060002090601f01602090048101928261019d57600085556101e4565b82601f106101b657805160ff19168380011785556101e4565b828001600101855582156101e4579182015b828111156101e35782518255916020019190600101906101c8565b5b5090506101f191906101f5565b5090565b5b8082111561020e5760008160009055506001016101f6565b5090565b60006102256102208461033b565b610316565b90508281526020810184848401111561023d57600080fd5b610248848285610388565b509392505050565b600082601f83011261026157600080fd5b8135610271848260208601610212565b91505092915050565b60006020828403121561028c57600080fd5b600082013567ffffffffffffffff8111156102a657600080fd5b6102b284828501610250565b91505092915050565b60006102c68261036c565b6102d08185610377565b93506102e0818560208601610397565b6102e98161048b565b840191505092915050565b6000602082019050818103600083015261030e81846102bb565b905092915050565b6000610320610331565b905061032c82826103fc565b919050565b6000604051905090565b600067ffffffffffffffff8211156103565761035561045c565b5b61035f8261048b565b9050602081019050919050565b600081519050919050565b600082825260208201905092915050565b82818337600083830152505050565b60005b838110156103b557808201518184015260208101905061039a565b838111156103c4576000848401525b50505050565b600060028204905060018216806103e257607f821691505b602082108114156103f6576103f561042d565b5b50919050565b6104058261048b565b810181811067ffffffffffffffff821117156104245761042361045c565b5b80604052505050565b7f4e487b7100000000000000000000000000000000000000000000000000000000600052602260045260246000fd5b7f4e487b7100000000000000000000000000000000000000000000000000000000600052604160045260246000fd5b6000601f19601f830116905091905056fea2646970667358221220298d93a8abd1cdad8b4e915881c471c372041a8704be4abc972f2c3797f68e8164736f6c63430008020033",
  "linkReferences": {},
  "deployedLinkReferences": {}
}