{
  "_format": "hh-sol-artifact-1",
  "contractName": "StorageV2",
  "sourceName": "contracts/StorageV2.sol",
  "abi": [
    {
      "anonymous": false,
      "inputs": [
        {
          "indexed": false,
          "internalType": "address",
          "name": "previousAdmin",
          "type": "address"
        },
        {
          "indexed": false,
          "internalType": "address",
          "name": "newAdmin",
          "type": "address"
        }
      ],
      "name": "AdminChanged",
      "type": "event"
    },
    {
      "anonymous": false,
      "inputs": [
        {
          "indexed": true,
          "internalType": "address",
          "name": "beacon",
          "type": "address"
        }
      ],
      "name": "BeaconUpgraded",
      "type": "event"
    },
    {
      "anonymous": false,
      "inputs": [
        {
          "indexed": true,
          "internalType": "address",
          "name": "account",
          "type": "address"
        },
        {
          "indexed": false,
          "internalType": "string",
          "name": "data1",
          "type": "string"
        }
      ],
      "name": "Data1Set",
      "type": "event"
    },
    {
      "anonymous": false,
      "inputs": [
        {
          "indexed": true,
          "internalType": "address",
          "name": "account",
          "type": "address"
        },
        {
          "indexed": false,
          "internalType": "string",
          "name": "data2",
          "type": "string"
        }
      ],
      "name": "Data2Set",
      "type": "event"
    },
    {
      "anonymous": false,
      "inputs": [
        {
          "indexed": true,
          "internalType": "address",
          "name": "previousOwner",
          "type": "address"
        },
        {
          "indexed": true,
          "internalType": "address",
          "name": "newOwner",
          "type": "address"
        }
      ],
      "name": "OwnershipTransferred",
      "type": "event"
    },
    {
      "anonymous": false,
      "inputs": [
        {
          "indexed": true,
          "internalType": "address",
          "name": "implementation",
          "type": "address"
        }
      ],
      "name": "Upgraded",
      "type": "event"
    },
    {
      "inputs": [],
      "name": "getData1",
      "outputs": [
        {
          "internalType": "string",
          "name": "",
          "type": "string"
        }
      ],
      "stateMutability": "view",
      "type": "function"
    },
    {
      "inputs": [],
      "name": "getData2",
      "outputs": [
        {
          "internalType": "string",
          "name": "",
          "type": "string"
        }
      ],
      "stateMutability": "view",
      "type": "function"
    },
    {
      "inputs": [],
      "name": "initialize",
      "outputs": [],
      "stateMutability": "nonpayable",
      "type": "function"
    },
    {
      "inputs": [],
      "name": "owner",
      "outputs": [
        {
          "internalType": "address",
          "name": "",
          "type": "address"
        }
      ],
      "stateMutability": "view",
      "type": "function"
    },
    {
      "inputs": [],
      "name": "renounceOwnership",
      "outputs": [],
      "stateMutability": "nonpayable",
      "type": "function"
    },
    {
      "inputs": [
        {
          "internalType": "string",
          "name": "data1_",
          "type": "string"
        }
      ],
      "name": "setData1",
      "outputs": [],
      "stateMutability": "nonpayable",
      "type": "function"
    },
    {
      "inputs": [
        {
          "internalType": "string",
          "name": "data2_",
          "type": "string"
        }
      ],
      "name": "setData2",
      "outputs": [],
      "stateMutability": "nonpayable",
      "type": "function"
    },
    {
      "inputs": [
        {
          "internalType": "address",
          "name": "newOwner",
          "type": "address"
        }
      ],
      "name": "transferOwnership",
      "outputs": [],
      "stateMutability": "nonpayable",
      "type": "function"
    },
    {
      "inputs": [
        {
          "internalType": "address",
          "name": "newImplementation",
          "type": "address"
        }
      ],
      "name": "upgradeTo",
      "outputs": [],
      "stateMutability": "nonpayable",
      "type": "function"
    },
    {
      "inputs": [
        {
          "internalType": "address",
          "name": "newImplementation",
          "type": "address"
        },
        {
          "internalType": "bytes",
          "name": "data",
          "type": "bytes"
        }
      ],
      "name": "upgradeToAndCall",
      "outputs": [],
      "stateMutability": "payable",
      "type": "function"
    },
    {
      "inputs": [],
      "name": "version",
      "outputs": [
        {
          "internalType": "string",
          "name": "",
          "type": "string"
        }
      ],
      "stateMutability": "pure",
      "type": "function"
    }
  ],
  "bytecode": "0x608060405234801561001057600080fd5b5061189d806100206000396000f3fe60806040526004361061009c5760003560e01c8063715018a611610064578063715018a6146101635780638129fc1c1461017a5780638da5cb5b146101915780639944cc71146101bc578063a898fd70146101e7578063f2fde38b146102125761009c565b80630745f9d5146100a15780633659cfe6146100ca5780634f1ef286146100f357806354fd4d501461010f5780636fab73901461013a575b600080fd5b3480156100ad57600080fd5b506100c860048036038101906100c391906111d6565b61023b565b005b3480156100d657600080fd5b506100f160048036038101906100ec9190611159565b6102a3565b005b61010d60048036038101906101089190611182565b6102ca565b005b34801561011b57600080fd5b506101246102e3565b6040516101319190611394565b60405180910390f35b34801561014657600080fd5b50610161600480360381019061015c91906111d6565b610320565b005b34801561016f57600080fd5b50610178610388565b005b34801561018657600080fd5b5061018f610410565b005b34801561019d57600080fd5b506101a66104f1565b6040516101b39190611379565b60405180910390f35b3480156101c857600080fd5b506101d161051b565b6040516101de9190611394565b60405180910390f35b3480156101f357600080fd5b506101fc6105ad565b6040516102099190611394565b60405180910390f35b34801561021e57600080fd5b5061023960048036038101906102349190611159565b61063f565b005b8060c99080519060200190610251929190610fd1565b503373ffffffffffffffffffffffffffffffffffffffff167fb449e04aabb28b2a86020d65554ca6ecfe8e3e06f6907a794064520efbdab7e2826040516102989190611394565b60405180910390a250565b6102ac81610737565b6102c7816040518060200160405280600081525060006107b6565b50565b6102d382610737565b6102df828260016107b6565b5050565b60606040518060400160405280600481526020017f76322e3000000000000000000000000000000000000000000000000000000000815250905090565b8060ca9080519060200190610336929190610fd1565b503373ffffffffffffffffffffffffffffffffffffffff167fe1f7485848a21c1149782ff79103d69f9b68cb9f05a59fed8c40a7a682408c118260405161037d9190611394565b60405180910390a250565b610390610987565b73ffffffffffffffffffffffffffffffffffffffff166103ae6104f1565b73ffffffffffffffffffffffffffffffffffffffff1614610404576040517f08c379a00000000000000000000000000000000000000000000000000000000081526004016103fb90611436565b60405180910390fd5b61040e600061098f565b565b600060019054906101000a900460ff1680610436575060008054906101000a900460ff16155b610475576040517f08c379a000000000000000000000000000000000000000000000000000000000815260040161046c906113f6565b60405180910390fd5b60008060019054906101000a900460ff1615905080156104c5576001600060016101000a81548160ff02191690831515021790555060016000806101000a81548160ff0219169083151502179055505b6104cd610a55565b80156104ee5760008060016101000a81548160ff0219169083151502179055505b50565b6000603360009054906101000a900473ffffffffffffffffffffffffffffffffffffffff16905090565b606060c9805461052a906115a3565b80601f0160208091040260200160405190810160405280929190818152602001828054610556906115a3565b80156105a35780601f10610578576101008083540402835291602001916105a3565b820191906000526020600020905b81548152906001019060200180831161058657829003601f168201915b5050505050905090565b606060ca80546105bc906115a3565b80601f01602080910402602001604051908101604052809291908181526020018280546105e8906115a3565b80156106355780601f1061060a57610100808354040283529160200191610635565b820191906000526020600020905b81548152906001019060200180831161061857829003601f168201915b5050505050905090565b610647610987565b73ffffffffffffffffffffffffffffffffffffffff166106656104f1565b73ffffffffffffffffffffffffffffffffffffffff16146106bb576040517f08c379a00000000000000000000000000000000000000000000000000000000081526004016106b290611436565b60405180910390fd5b600073ffffffffffffffffffffffffffffffffffffffff168173ffffffffffffffffffffffffffffffffffffffff16141561072b576040517f08c379a0000000000000000000000000000000000000000000000000000000008152600401610722906113d6565b60405180910390fd5b6107348161098f565b50565b61073f610987565b73ffffffffffffffffffffffffffffffffffffffff1661075d6104f1565b73ffffffffffffffffffffffffffffffffffffffff16146107b3576040517f08c379a00000000000000000000000000000000000000000000000000000000081526004016107aa90611436565b60405180910390fd5b50565b60006107c0610b3e565b90506107cb84610b95565b6000835111806107d85750815b156107e9576107e78484610c4e565b505b60006108177f4910fdfa16fed3260ed0e7147f7cc6da11a60208b5b9406d12a635614ffd914360001b610d32565b90508060000160009054906101000a900460ff166109805760018160000160006101000a81548160ff0219169083151502179055506108e385836040516024016108619190611379565b6040516020818303038152906040527f3659cfe6000000000000000000000000000000000000000000000000000000007bffffffffffffffffffffffffffffffffffffffffffffffffffffffff19166020820180517bffffffffffffffffffffffffffffffffffffffffffffffffffffffff8381831617835250505050610c4e565b5060008160000160006101000a81548160ff021916908315150217905550610909610b3e565b73ffffffffffffffffffffffffffffffffffffffff168273ffffffffffffffffffffffffffffffffffffffff1614610976576040517f08c379a000000000000000000000000000000000000000000000000000000000815260040161096d906113b6565b60405180910390fd5b61097f85610d3c565b5b5050505050565b600033905090565b6000603360009054906101000a900473ffffffffffffffffffffffffffffffffffffffff16905081603360006101000a81548173ffffffffffffffffffffffffffffffffffffffff021916908373ffffffffffffffffffffffffffffffffffffffff1602179055508173ffffffffffffffffffffffffffffffffffffffff168173ffffffffffffffffffffffffffffffffffffffff167f8be0079c531659141344cd1fd0a4f28419497f9722a3daafe3b4186f6b6457e060405160405180910390a35050565b600060019054906101000a900460ff1680610a7b575060008054906101000a900460ff16155b610aba576040517f08c379a0000000000000000000000000000000000000000000000000000000008152600401610ab1906113f6565b60405180910390fd5b60008060019054906101000a900460ff161590508015610b0a576001600060016101000a81548160ff02191690831515021790555060016000806101000a81548160ff0219169083151502179055505b610b12610d8b565b610b1a610e64565b8015610b3b5760008060016101000a81548160ff0219169083151502179055505b50565b6000610b6c7f360894a13ba1a3210667c828492db98dca3e2076cc3735a920a3ca505d382bbc60001b610f4d565b60000160009054906101000a900473ffffffffffffffffffffffffffffffffffffffff16905090565b610b9e81610f57565b610bdd576040517f08c379a0000000000000000000000000000000000000000000000000000000008152600401610bd490611416565b60405180910390fd5b80610c0a7f360894a13ba1a3210667c828492db98dca3e2076cc3735a920a3ca505d382bbc60001b610f4d565b60000160006101000a81548173ffffffffffffffffffffffffffffffffffffffff021916908373ffffffffffffffffffffffffffffffffffffffff16021790555050565b6060610c5983610f57565b610c98576040517f08c379a0000000000000000000000000000000000000000000000000000000008152600401610c8f90611456565b60405180910390fd5b6000808473ffffffffffffffffffffffffffffffffffffffff1684604051610cc09190611362565b600060405180830381855af49150503d8060008114610cfb576040519150601f19603f3d011682016040523d82523d6000602084013e610d00565b606091505b5091509150610d28828260405180606001604052806027815260200161184160279139610f6a565b9250505092915050565b6000819050919050565b610d4581610b95565b8073ffffffffffffffffffffffffffffffffffffffff167fbc7cd75a20ee27fd9adebab32041f755214dbc6bffa90cc0225b39da2e5c2d3b60405160405180910390a250565b600060019054906101000a900460ff1680610db1575060008054906101000a900460ff16155b610df0576040517f08c379a0000000000000000000000000000000000000000000000000000000008152600401610de7906113f6565b60405180910390fd5b60008060019054906101000a900460ff161590508015610e40576001600060016101000a81548160ff02191690831515021790555060016000806101000a81548160ff0219169083151502179055505b8015610e615760008060016101000a81548160ff0219169083151502179055505b50565b600060019054906101000a900460ff1680610e8a575060008054906101000a900460ff16155b610ec9576040517f08c379a0000000000000000000000000000000000000000000000000000000008152600401610ec0906113f6565b60405180910390fd5b60008060019054906101000a900460ff161590508015610f19576001600060016101000a81548160ff02191690831515021790555060016000806101000a81548160ff0219169083151502179055505b610f29610f24610987565b61098f565b8015610f4a5760008060016101000a81548160ff0219169083151502179055505b50565b6000819050919050565b600080823b905060008111915050919050565b60608315610f7a57829050610fca565b600083511115610f8d5782518084602001fd5b816040517f08c379a0000000000000000000000000000000000000000000000000000000008152600401610fc19190611394565b60405180910390fd5b9392505050565b828054610fdd906115a3565b90600052602060002090601f016020900481019282610fff5760008555611046565b82601f1061101857805160ff1916838001178555611046565b82800160010185558215611046579182015b8281111561104557825182559160200191906001019061102a565b5b5090506110539190611057565b5090565b5b80821115611070576000816000905550600101611058565b5090565b60006110876110828461149b565b611476565b90508281526020810184848401111561109f57600080fd5b6110aa848285611561565b509392505050565b60006110c56110c0846114cc565b611476565b9050828152602081018484840111156110dd57600080fd5b6110e8848285611561565b509392505050565b6000813590506110ff81611829565b92915050565b600082601f83011261111657600080fd5b8135611126848260208601611074565b91505092915050565b600082601f83011261114057600080fd5b81356111508482602086016110b2565b91505092915050565b60006020828403121561116b57600080fd5b6000611179848285016110f0565b91505092915050565b6000806040838503121561119557600080fd5b60006111a3858286016110f0565b925050602083013567ffffffffffffffff8111156111c057600080fd5b6111cc85828601611105565b9150509250929050565b6000602082840312156111e857600080fd5b600082013567ffffffffffffffff81111561120257600080fd5b61120e8482850161112f565b91505092915050565b6112208161152f565b82525050565b6000611231826114fd565b61123b8185611513565b935061124b818560208601611570565b80840191505092915050565b600061126282611508565b61126c818561151e565b935061127c818560208601611570565b61128581611664565b840191505092915050565b600061129d602f8361151e565b91506112a882611675565b604082019050919050565b60006112c060268361151e565b91506112cb826116c4565b604082019050919050565b60006112e3602e8361151e565b91506112ee82611713565b604082019050919050565b6000611306602d8361151e565b915061131182611762565b604082019050919050565b600061132960208361151e565b9150611334826117b1565b602082019050919050565b600061134c60268361151e565b9150611357826117da565b604082019050919050565b600061136e8284611226565b915081905092915050565b600060208201905061138e6000830184611217565b92915050565b600060208201905081810360008301526113ae8184611257565b905092915050565b600060208201905081810360008301526113cf81611290565b9050919050565b600060208201905081810360008301526113ef816112b3565b9050919050565b6000602082019050818103600083015261140f816112d6565b9050919050565b6000602082019050818103600083015261142f816112f9565b9050919050565b6000602082019050818103600083015261144f8161131c565b9050919050565b6000602082019050818103600083015261146f8161133f565b9050919050565b6000611480611491565b905061148c82826115d5565b919050565b6000604051905090565b600067ffffffffffffffff8211156114b6576114b5611635565b5b6114bf82611664565b9050602081019050919050565b600067ffffffffffffffff8211156114e7576114e6611635565b5b6114f082611664565b9050602081019050919050565b600081519050919050565b600081519050919050565b600081905092915050565b600082825260208201905092915050565b600061153a82611541565b9050919050565b600073ffffffffffffffffffffffffffffffffffffffff82169050919050565b82818337600083830152505050565b60005b8381101561158e578082015181840152602081019050611573565b8381111561159d576000848401525b50505050565b600060028204905060018216806115bb57607f821691505b602082108114156115cf576115ce611606565b5b50919050565b6115de82611664565b810181811067ffffffffffffffff821117156115fd576115fc611635565b5b80604052505050565b7f4e487b7100000000000000000000000000000000000000000000000000000000600052602260045260246000fd5b7f4e487b7100000000000000000000000000000000000000000000000000000000600052604160045260246000fd5b6000601f19601f8301169050919050565b7f45524331393637557067726164653a207570677261646520627265616b73206660008201527f7572746865722075706772616465730000000000000000000000000000000000602082015250565b7f4f776e61626c653a206e6577206f776e657220697320746865207a65726f206160008201527f6464726573730000000000000000000000000000000000000000000000000000602082015250565b7f496e697469616c697a61626c653a20636f6e747261637420697320616c72656160008201527f647920696e697469616c697a6564000000000000000000000000000000000000602082015250565b7f455243313936373a206e657720696d706c656d656e746174696f6e206973206e60008201527f6f74206120636f6e747261637400000000000000000000000000000000000000602082015250565b7f4f776e61626c653a2063616c6c6572206973206e6f7420746865206f776e6572600082015250565b7f416464726573733a2064656c65676174652063616c6c20746f206e6f6e2d636f60008201527f6e74726163740000000000000000000000000000000000000000000000000000602082015250565b6118328161152f565b811461183d57600080fd5b5056fe416464726573733a206c6f772d6c6576656c2064656c65676174652063616c6c206661696c6564a2646970667358221220e9f1b4ea4cfa61d538f58fb5a109d0235a1fa69ee952a30639b6e2fde36d37df64736f6c63430008020033",
  "linkReferences": {},
  "deployedLinkReferences": {}
}