{
  "_format": "hh-sol-artifact-1",
  "contractName": "MultiSig",
  "sourceName": "contracts/MultiSig.sol",
  "abi": [
    {
      "inputs": [
        {
          "internalType": "address",
          "name": "admin1",
          "type": "address"
        },
        {
          "internalType": "address",
          "name": "admin2",
          "type": "address"
        },
        {
          "internalType": "address",
          "name": "admin3",
          "type": "address"
        },
        {
          "internalType": "uint256",
          "name": "threshold_",
          "type": "uint256"
        }
      ],
      "stateMutability": "nonpayable",
      "type": "constructor"
    },
    {
      "anonymous": false,
      "inputs": [
        {
          "indexed": false,
          "internalType": "uint256",
          "name": "id",
          "type": "uint256"
        }
      ],
      "name": "Approved",
      "type": "event"
    },
    {
      "anonymous": false,
      "inputs": [
        {
          "indexed": true,
          "internalType": "address",
          "name": "sender",
          "type": "address"
        },
        {
          "indexed": false,
          "internalType": "uint256",
          "name": "id",
          "type": "uint256"
        }
      ],
      "name": "Proposed",
      "type": "event"
    },
    {
      "anonymous": false,
      "inputs": [
        {
          "indexed": false,
          "internalType": "uint256",
          "name": "id",
          "type": "uint256"
        }
      ],
      "name": "Rejected",
      "type": "event"
    },
    {
      "anonymous": false,
      "inputs": [
        {
          "indexed": true,
          "internalType": "bytes32",
          "name": "role",
          "type": "bytes32"
        },
        {
          "indexed": true,
          "internalType": "bytes32",
          "name": "previousAdminRole",
          "type": "bytes32"
        },
        {
          "indexed": true,
          "internalType": "bytes32",
          "name": "newAdminRole",
          "type": "bytes32"
        }
      ],
      "name": "RoleAdminChanged",
      "type": "event"
    },
    {
      "anonymous": false,
      "inputs": [
        {
          "indexed": true,
          "internalType": "bytes32",
          "name": "role",
          "type": "bytes32"
        },
        {
          "indexed": true,
          "internalType": "address",
          "name": "account",
          "type": "address"
        },
        {
          "indexed": true,
          "internalType": "address",
          "name": "sender",
          "type": "address"
        }
      ],
      "name": "RoleGranted",
      "type": "event"
    },
    {
      "anonymous": false,
      "inputs": [
        {
          "indexed": true,
          "internalType": "bytes32",
          "name": "role",
          "type": "bytes32"
        },
        {
          "indexed": true,
          "internalType": "address",
          "name": "account",
          "type": "address"
        },
        {
          "indexed": true,
          "internalType": "address",
          "name": "sender",
          "type": "address"
        }
      ],
      "name": "RoleRevoked",
      "type": "event"
    },
    {
      "inputs": [],
      "name": "ACA",
      "outputs": [
        {
          "internalType": "address",
          "name": "",
          "type": "address"
        }
      ],
      "stateMutability": "view",
      "type": "function"
    },
    {
      "inputs": [],
      "name": "ADMIN",
      "outputs": [
        {
          "internalType": "bytes32",
          "name": "",
          "type": "bytes32"
        }
      ],
      "stateMutability": "view",
      "type": "function"
    },
    {
      "inputs": [],
      "name": "AUSD",
      "outputs": [
        {
          "internalType": "address",
          "name": "",
          "type": "address"
        }
      ],
      "stateMutability": "view",
      "type": "function"
    },
    {
      "inputs": [],
      "name": "CASH",
      "outputs": [
        {
          "internalType": "address",
          "name": "",
          "type": "address"
        }
      ],
      "stateMutability": "view",
      "type": "function"
    },
    {
      "inputs": [],
      "name": "DEFAULT_ADMIN_ROLE",
      "outputs": [
        {
          "internalType": "bytes32",
          "name": "",
          "type": "bytes32"
        }
      ],
      "stateMutability": "view",
      "type": "function"
    },
    {
      "inputs": [],
      "name": "DEX",
      "outputs": [
        {
          "internalType": "address",
          "name": "",
          "type": "address"
        }
      ],
      "stateMutability": "view",
      "type": "function"
    },
    {
      "inputs": [],
      "name": "DOT",
      "outputs": [
        {
          "internalType": "address",
          "name": "",
          "type": "address"
        }
      ],
      "stateMutability": "view",
      "type": "function"
    },
    {
      "inputs": [],
      "name": "KAR",
      "outputs": [
        {
          "internalType": "address",
          "name": "",
          "type": "address"
        }
      ],
      "stateMutability": "view",
      "type": "function"
    },
    {
      "inputs": [],
      "name": "KSM",
      "outputs": [
        {
          "internalType": "address",
          "name": "",
          "type": "address"
        }
      ],
      "stateMutability": "view",
      "type": "function"
    },
    {
      "inputs": [],
      "name": "KUSD",
      "outputs": [
        {
          "internalType": "address",
          "name": "",
          "type": "address"
        }
      ],
      "stateMutability": "view",
      "type": "function"
    },
    {
      "inputs": [],
      "name": "LDOT",
      "outputs": [
        {
          "internalType": "address",
          "name": "",
          "type": "address"
        }
      ],
      "stateMutability": "view",
      "type": "function"
    },
    {
      "inputs": [],
      "name": "LKSM",
      "outputs": [
        {
          "internalType": "address",
          "name": "",
          "type": "address"
        }
      ],
      "stateMutability": "view",
      "type": "function"
    },
    {
      "inputs": [],
      "name": "LP_ACA_AUSD",
      "outputs": [
        {
          "internalType": "address",
          "name": "",
          "type": "address"
        }
      ],
      "stateMutability": "view",
      "type": "function"
    },
    {
      "inputs": [],
      "name": "LP_DOT_AUSD",
      "outputs": [
        {
          "internalType": "address",
          "name": "",
          "type": "address"
        }
      ],
      "stateMutability": "view",
      "type": "function"
    },
    {
      "inputs": [],
      "name": "LP_KAR_KUSD",
      "outputs": [
        {
          "internalType": "address",
          "name": "",
          "type": "address"
        }
      ],
      "stateMutability": "view",
      "type": "function"
    },
    {
      "inputs": [],
      "name": "LP_KSM_KUSD",
      "outputs": [
        {
          "internalType": "address",
          "name": "",
          "type": "address"
        }
      ],
      "stateMutability": "view",
      "type": "function"
    },
    {
      "inputs": [],
      "name": "LP_LDOT_AUSD",
      "outputs": [
        {
          "internalType": "address",
          "name": "",
          "type": "address"
        }
      ],
      "stateMutability": "view",
      "type": "function"
    },
    {
      "inputs": [],
      "name": "LP_LKSM_KUSD",
      "outputs": [
        {
          "internalType": "address",
          "name": "",
          "type": "address"
        }
      ],
      "stateMutability": "view",
      "type": "function"
    },
    {
      "inputs": [],
      "name": "LP_RENBTC_AUSD",
      "outputs": [
        {
          "internalType": "address",
          "name": "",
          "type": "address"
        }
      ],
      "stateMutability": "view",
      "type": "function"
    },
    {
      "inputs": [],
      "name": "ORACLE",
      "outputs": [
        {
          "internalType": "address",
          "name": "",
          "type": "address"
        }
      ],
      "stateMutability": "view",
      "type": "function"
    },
    {
      "inputs": [],
      "name": "RENBTC",
      "outputs": [
        {
          "internalType": "address",
          "name": "",
          "type": "address"
        }
      ],
      "stateMutability": "view",
      "type": "function"
    },
    {
      "inputs": [],
      "name": "SCHEDULE",
      "outputs": [
        {
          "internalType": "address",
          "name": "",
          "type": "address"
        }
      ],
      "stateMutability": "view",
      "type": "function"
    },
    {
      "inputs": [],
      "name": "STATE_RENT",
      "outputs": [
        {
          "internalType": "address",
          "name": "",
          "type": "address"
        }
      ],
      "stateMutability": "view",
      "type": "function"
    },
    {
      "inputs": [],
      "name": "TOKEN",
      "outputs": [
        {
          "internalType": "address",
          "name": "",
          "type": "address"
        }
      ],
      "stateMutability": "view",
      "type": "function"
    },
    {
      "inputs": [
        {
          "internalType": "bytes32",
          "name": "role",
          "type": "bytes32"
        }
      ],
      "name": "getRoleAdmin",
      "outputs": [
        {
          "internalType": "bytes32",
          "name": "",
          "type": "bytes32"
        }
      ],
      "stateMutability": "view",
      "type": "function"
    },
    {
      "inputs": [
        {
          "internalType": "bytes32",
          "name": "role",
          "type": "bytes32"
        },
        {
          "internalType": "uint256",
          "name": "index",
          "type": "uint256"
        }
      ],
      "name": "getRoleMember",
      "outputs": [
        {
          "internalType": "address",
          "name": "",
          "type": "address"
        }
      ],
      "stateMutability": "view",
      "type": "function"
    },
    {
      "inputs": [
        {
          "internalType": "bytes32",
          "name": "role",
          "type": "bytes32"
        }
      ],
      "name": "getRoleMemberCount",
      "outputs": [
        {
          "internalType": "uint256",
          "name": "",
          "type": "uint256"
        }
      ],
      "stateMutability": "view",
      "type": "function"
    },
    {
      "inputs": [
        {
          "internalType": "bytes32",
          "name": "role",
          "type": "bytes32"
        },
        {
          "internalType": "address",
          "name": "account",
          "type": "address"
        }
      ],
      "name": "grantRole",
      "outputs": [],
      "stateMutability": "nonpayable",
      "type": "function"
    },
    {
      "inputs": [
        {
          "internalType": "bytes32",
          "name": "role",
          "type": "bytes32"
        },
        {
          "internalType": "address",
          "name": "account",
          "type": "address"
        }
      ],
      "name": "hasRole",
      "outputs": [
        {
          "internalType": "bool",
          "name": "",
          "type": "bool"
        }
      ],
      "stateMutability": "view",
      "type": "function"
    },
    {
      "inputs": [
        {
          "internalType": "address",
          "name": "account",
          "type": "address"
        },
        {
          "internalType": "uint256",
          "name": "id",
          "type": "uint256"
        }
      ],
      "name": "hasVoted",
      "outputs": [
        {
          "internalType": "bool",
          "name": "",
          "type": "bool"
        }
      ],
      "stateMutability": "view",
      "type": "function"
    },
    {
      "inputs": [
        {
          "internalType": "uint256",
          "name": "id",
          "type": "uint256"
        }
      ],
      "name": "proposalById",
      "outputs": [
        {
          "components": [
            {
              "internalType": "enum MultiSig.Status",
              "name": "status",
              "type": "uint8"
            },
            {
              "internalType": "address",
              "name": "upgrade",
              "type": "address"
            },
            {
              "internalType": "uint256",
              "name": "period",
              "type": "uint256"
            },
            {
              "internalType": "uint256",
              "name": "nbYes",
              "type": "uint256"
            },
            {
              "internalType": "uint256",
              "name": "nbNo",
              "type": "uint256"
            },
            {
              "internalType": "uint256",
              "name": "createdAt",
              "type": "uint256"
            }
          ],
          "internalType": "struct MultiSig.Proposal",
          "name": "",
          "type": "tuple"
        }
      ],
      "stateMutability": "view",
      "type": "function"
    },
    {
      "inputs": [
        {
          "internalType": "address",
          "name": "upgrade",
          "type": "address"
        },
        {
          "internalType": "uint256",
          "name": "period",
          "type": "uint256"
        }
      ],
      "name": "propose",
      "outputs": [
        {
          "internalType": "uint256",
          "name": "",
          "type": "uint256"
        }
      ],
      "stateMutability": "nonpayable",
      "type": "function"
    },
    {
      "inputs": [
        {
          "internalType": "bytes32",
          "name": "role",
          "type": "bytes32"
        },
        {
          "internalType": "address",
          "name": "account",
          "type": "address"
        }
      ],
      "name": "renounceRole",
      "outputs": [],
      "stateMutability": "nonpayable",
      "type": "function"
    },
    {
      "inputs": [
        {
          "internalType": "bytes32",
          "name": "role",
          "type": "bytes32"
        },
        {
          "internalType": "address",
          "name": "account",
          "type": "address"
        }
      ],
      "name": "revokeRole",
      "outputs": [],
      "stateMutability": "nonpayable",
      "type": "function"
    },
    {
      "inputs": [],
      "name": "scheduler",
      "outputs": [
        {
          "internalType": "contract ISchedule",
          "name": "",
          "type": "address"
        }
      ],
      "stateMutability": "view",
      "type": "function"
    },
    {
      "inputs": [
        {
          "internalType": "bytes4",
          "name": "interfaceId",
          "type": "bytes4"
        }
      ],
      "name": "supportsInterface",
      "outputs": [
        {
          "internalType": "bool",
          "name": "",
          "type": "bool"
        }
      ],
      "stateMutability": "view",
      "type": "function"
    },
    {
      "inputs": [],
      "name": "threshold",
      "outputs": [
        {
          "internalType": "uint256",
          "name": "",
          "type": "uint256"
        }
      ],
      "stateMutability": "view",
      "type": "function"
    },
    {
      "inputs": [
        {
          "internalType": "uint256",
          "name": "id",
          "type": "uint256"
        },
        {
          "internalType": "enum MultiSig.Vote",
          "name": "vote_",
          "type": "uint8"
        }
      ],
      "name": "vote",
      "outputs": [],
      "stateMutability": "nonpayable",
      "type": "function"
    }
  ],
  "bytecode": "0x6080604052610803600360006101000a81548173ffffffffffffffffffffffffffffffffffffffff021916908373ffffffffffffffffffffffffffffffffffffffff1602179055503480156200005457600080fd5b5060405162002eec38038062002eec83398181016040528101906200007a9190620003fa565b6200008f6000801b336200013660201b60201c565b620000c17fdf8b4c520ffe197c5343c6f5aec59570151ef9a492f2c624fd45ddde6135ec42856200013660201b60201c565b620000f37fdf8b4c520ffe197c5343c6f5aec59570151ef9a492f2c624fd45ddde6135ec42846200013660201b60201c565b620001257fdf8b4c520ffe197c5343c6f5aec59570151ef9a492f2c624fd45ddde6135ec42836200013660201b60201c565b8060028190555050505050620004d8565b6200014d82826200017e60201b6200153a1760201c565b6200017981600160008581526020019081526020016000206200019460201b620015481790919060201c565b505050565b620001908282620001cc60201b60201c565b5050565b6000620001c4836000018373ffffffffffffffffffffffffffffffffffffffff1660001b620002bd60201b60201c565b905092915050565b620001de82826200033760201b60201c565b620002b957600160008084815260200190815260200160002060000160008373ffffffffffffffffffffffffffffffffffffffff1673ffffffffffffffffffffffffffffffffffffffff16815260200190815260200160002060006101000a81548160ff0219169083151502179055506200025e620003a160201b60201c565b73ffffffffffffffffffffffffffffffffffffffff168173ffffffffffffffffffffffffffffffffffffffff16837f2f8788117e7eff1d82e926ec794901d17c78024a50270940304540a733656f0d60405160405180910390a45b5050565b6000620002d18383620003a960201b60201c565b6200032c57826000018290806001815401808255809150506001900390600052602060002001600090919091909150558260000180549050836001016000848152602001908152602001600020819055506001905062000331565b600090505b92915050565b600080600084815260200190815260200160002060000160008373ffffffffffffffffffffffffffffffffffffffff1673ffffffffffffffffffffffffffffffffffffffff16815260200190815260200160002060009054906101000a900460ff16905092915050565b600033905090565b600080836001016000848152602001908152602001600020541415905092915050565b600081519050620003dd81620004a4565b92915050565b600081519050620003f481620004be565b92915050565b600080600080608085870312156200041157600080fd5b60006200042187828801620003cc565b94505060206200043487828801620003cc565b93505060406200044787828801620003cc565b92505060606200045a87828801620003e3565b91505092959194509250565b600062000473826200047a565b9050919050565b600073ffffffffffffffffffffffffffffffffffffffff82169050919050565b6000819050919050565b620004af8162000466565b8114620004bb57600080fd5b50565b620004c9816200049a565b8114620004d557600080fd5b50565b612a0480620004e86000396000f3fe608060405234801561001057600080fd5b50600436106102325760003560e01c806380935aa911610130578063b3d27bc5116100b8578063d1ad17bf1161007c578063d1ad17bf1461069f578063d547741f146106bd578063d7f269fe146106d9578063e18b7ac5146106f7578063efcec2651461071557610232565b8063b3d27bc5146105f7578063bacbd7cc14610615578063c30054c014610633578063c496981514610651578063ca15c8731461066f57610232565b806391d14854116100ff57806391d1485414610551578063943e821614610581578063a1b562261461059d578063a217fddf146105bb578063a5770a54146105d957610232565b806380935aa9146104c757806380bd60e8146104e557806382bfefc8146105035780639010d07c1461052157610232565b80632f2ff15d116101be5780634254582511610182578063425458251461040d57806342cde4e81461043d578063589de5df1461045b5780635d499e821461048b5780636022c7ab146104a957610232565b80632f2ff15d1461037b5780632fd7d1fd1461039757806336568abe146103b557806336e02950146103d157806338013f02146103ef57610232565b806318ad37af1161020557806318ad37af146102d357806318dca9ba146102f15780631f9276751461030f578063248a9ca31461032d5780632a0acc6a1461035d57610232565b806301ffc9a71461023757806302f9612b146102675780630a4cad6b1461029757806316979a18146102b5575b600080fd5b610251600480360381019061024c9190612159565b610733565b60405161025e919061246b565b60405180910390f35b610281600480360381019061027c9190612182565b6107ad565b60405161028e919061255e565b60405180910390f35b61029f6108df565b6040516102ac9190612450565b60405180910390f35b6102bd6108ec565b6040516102ca9190612450565b60405180910390f35b6102db6108f2565b6040516102e89190612450565b60405180910390f35b6102f96108fa565b6040516103069190612450565b60405180910390f35b610317610907565b6040516103249190612450565b60405180910390f35b610347600480360381019061034291906120b8565b61090f565b6040516103549190612486565b60405180910390f35b61036561092e565b6040516103729190612486565b60405180910390f35b610395600480360381019061039091906120e1565b610952565b005b61039f610986565b6040516103ac9190612450565b60405180910390f35b6103cf60048036038101906103ca91906120e1565b61098e565b005b6103d96109c2565b6040516103e69190612450565b60405180910390f35b6103f76109ca565b6040516104049190612450565b60405180910390f35b6104276004803603810190610422919061207c565b6109d0565b604051610434919061246b565b60405180910390f35b610445610a38565b6040516104529190612579565b60405180910390f35b6104756004803603810190610470919061207c565b610a42565b6040516104829190612579565b60405180910390f35b610493610c40565b6040516104a09190612450565b60405180910390f35b6104b1610c4d565b6040516104be9190612450565b60405180910390f35b6104cf610c55565b6040516104dc9190612450565b60405180910390f35b6104ed610c5b565b6040516104fa9190612450565b60405180910390f35b61050b610c68565b6040516105189190612450565b60405180910390f35b61053b6004803603810190610536919061211d565b610c6e565b6040516105489190612450565b60405180910390f35b61056b600480360381019061056691906120e1565b610c9d565b604051610578919061246b565b60405180910390f35b61059b600480360381019061059691906121ab565b610d07565b005b6105a5611460565b6040516105b29190612450565b60405180910390f35b6105c3611468565b6040516105d09190612486565b60405180910390f35b6105e161146f565b6040516105ee9190612450565b60405180910390f35b6105ff61147c565b60405161060c9190612450565b60405180910390f35b61061d611484565b60405161062a9190612450565b60405180910390f35b61063b611491565b6040516106489190612450565b60405180910390f35b610659611499565b6040516106669190612450565b60405180910390f35b610689600480360381019061068491906120b8565b6114a1565b6040516106969190612579565b60405180910390f35b6106a76114c5565b6040516106b491906124a1565b60405180910390f35b6106d760048036038101906106d291906120e1565b6114eb565b005b6106e161151f565b6040516106ee9190612450565b60405180910390f35b6106ff611527565b60405161070c9190612450565b60405180910390f35b61071d611534565b60405161072a9190612450565b60405180910390f35b60007f5a05180f000000000000000000000000000000000000000000000000000000007bffffffffffffffffffffffffffffffffffffffffffffffffffffffff1916827bffffffffffffffffffffffffffffffffffffffffffffffffffffffff191614806107a657506107a582611578565b5b9050919050565b6107b5611f8f565b600560008381526020019081526020016000206040518060c00160405290816000820160009054906101000a900460ff16600281111561081e577f4e487b7100000000000000000000000000000000000000000000000000000000600052602160045260246000fd5b6002811115610856577f4e487b7100000000000000000000000000000000000000000000000000000000600052602160045260246000fd5b81526020016000820160019054906101000a900473ffffffffffffffffffffffffffffffffffffffff1673ffffffffffffffffffffffffffffffffffffffff1673ffffffffffffffffffffffffffffffffffffffff1681526020016001820154815260200160028201548152602001600382015481526020016004820154815250509050919050565b6801000000020000000181565b61080381565b630100008181565b6801000000140000000181565b630100008381565b6000806000838152602001908152602001600020600101549050919050565b7fdf8b4c520ffe197c5343c6f5aec59570151ef9a492f2c624fd45ddde6135ec4281565b61095c82826115f2565b610981816001600085815260200190815260200160002061154890919063ffffffff16565b505050565b630100000181565b610998828261161b565b6109bd816001600085815260200190815260200160002061169e90919063ffffffff16565b505050565b630100000281565b61080281565b6000600660008473ffffffffffffffffffffffffffffffffffffffff1673ffffffffffffffffffffffffffffffffffffffff168152602001908152602001600020600083815260200190815260200160002060009054906101000a900460ff16905092915050565b6000600254905090565b60007fdf8b4c520ffe197c5343c6f5aec59570151ef9a492f2c624fd45ddde6135ec42610a7681610a716116ce565b6116d6565b610a806004611773565b6000610a8c6004611789565b90506040518060c0016040528060006002811115610ad3577f4e487b7100000000000000000000000000000000000000000000000000000000600052602160045260246000fd5b81526020018673ffffffffffffffffffffffffffffffffffffffff1681526020018581526020016000815260200160008152602001428152506005600083815260200190815260200160002060008201518160000160006101000a81548160ff02191690836002811115610b70577f4e487b7100000000000000000000000000000000000000000000000000000000600052602160045260246000fd5b021790555060208201518160000160016101000a81548173ffffffffffffffffffffffffffffffffffffffff021916908373ffffffffffffffffffffffffffffffffffffffff16021790555060408201518160010155606082015181600201556080820151816003015560a082015181600401559050503373ffffffffffffffffffffffffffffffffffffffff167f047933b4d6d5561046580f25334035991926e1531252edfc5f6faa07bb9de2d282604051610c2d9190612579565b60405180910390a2809250505092915050565b6801000000820000008181565b630100000381565b61080481565b6801000000800000008181565b61080081565b6000610c95826001600086815260200190815260200160002061179790919063ffffffff16565b905092915050565b600080600084815260200190815260200160002060000160008373ffffffffffffffffffffffffffffffffffffffff1673ffffffffffffffffffffffffffffffffffffffff16815260200190815260200160002060009054906101000a900460ff16905092915050565b7fdf8b4c520ffe197c5343c6f5aec59570151ef9a492f2c624fd45ddde6135ec42610d3981610d346116ce565b6116d6565b60001515600660003373ffffffffffffffffffffffffffffffffffffffff1673ffffffffffffffffffffffffffffffffffffffff168152602001908152602001600020600085815260200190815260200160002060009054906101000a900460ff16151514610ddd576040517f08c379a0000000000000000000000000000000000000000000000000000000008152600401610dd4906124fe565b60405180910390fd5b60006002811115610e17577f4e487b7100000000000000000000000000000000000000000000000000000000600052602160045260246000fd5b6005600085815260200190815260200160002060000160009054906101000a900460ff166002811115610e73577f4e487b7100000000000000000000000000000000000000000000000000000000600052602160045260246000fd5b14610eb3576040517f08c379a0000000000000000000000000000000000000000000000000000000008152600401610eaa9061251e565b60405180910390fd5b6000610ede7fdf8b4c520ffe197c5343c6f5aec59570151ef9a492f2c624fd45ddde6135ec426114a1565b90506002546005600086815260200190815260200160002060040154610f0491906125bb565b4211156110b657600560008581526020019081526020016000206003015460056000868152602001908152602001600020600201541115610fe05760016005600086815260200190815260200160002060000160006101000a81548160ff02191690836002811115610f9f577f4e487b7100000000000000000000000000000000000000000000000000000000600052602160045260246000fd5b02179055507f3ad93af63cb7967b23e4fb500b7d7d28b07516325dcf341f88bebf959d82c1cb84604051610fd39190612579565b60405180910390a16110b1565b60056000858152602001908152602001600020600301546005600086815260200190815260200160002060020154116110b05760026005600086815260200190815260200160002060000160006101000a81548160ff02191690836002811115611073577f4e487b7100000000000000000000000000000000000000000000000000000000600052602160045260246000fd5b02179055507f94064f919a02d0565c6790e0615fb4ba6cf1be1dd679f0161be914613a1b9bb5846040516110a79190612579565b60405180910390a15b5b61145a565b600060018111156110f0577f4e487b7100000000000000000000000000000000000000000000000000000000600052602160045260246000fd5b836001811115611129577f4e487b7100000000000000000000000000000000000000000000000000000000600052602160045260246000fd5b141561116257600160056000868152602001908152602001600020600201600082825461115691906125bb565b9250508190555061120a565b60018081111561119b577f4e487b7100000000000000000000000000000000000000000000000000000000600052602160045260246000fd5b8360018111156111d4577f4e487b7100000000000000000000000000000000000000000000000000000000600052602160045260246000fd5b141561120957600160056000868152602001908152602001600020600301600082825461120191906125bb565b925050819055505b5b6001600660003373ffffffffffffffffffffffffffffffffffffffff1673ffffffffffffffffffffffffffffffffffffffff168152602001908152602001600020600086815260200190815260200160002060006101000a81548160ff02191690831515021790555080600560008681526020019081526020016000206003015460056000878152602001908152602001600020600201546112ac91906125bb565b1415611459576005600085815260200190815260200160002060030154600560008681526020019081526020016000206002015411156113875760016005600086815260200190815260200160002060000160006101000a81548160ff02191690836002811115611346577f4e487b7100000000000000000000000000000000000000000000000000000000600052602160045260246000fd5b02179055507f3ad93af63cb7967b23e4fb500b7d7d28b07516325dcf341f88bebf959d82c1cb8460405161137a9190612579565b60405180910390a1611458565b60056000858152602001908152602001600020600301546005600086815260200190815260200160002060020154116114575760026005600086815260200190815260200160002060000160006101000a81548160ff0219169083600281111561141a577f4e487b7100000000000000000000000000000000000000000000000000000000600052602160045260246000fd5b02179055507f94064f919a02d0565c6790e0615fb4ba6cf1be1dd679f0161be914613a1b9bb58460405161144e9190612579565b60405180910390a15b5b5b5b50505050565b630100000081565b6000801b81565b6801000000000000000181565b630100008081565b6801000000830000008181565b630100008281565b630100001581565b60006114be600160008481526020019081526020016000206117b1565b9050919050565b600360009054906101000a900473ffffffffffffffffffffffffffffffffffffffff1681565b6114f582826117c6565b61151a816001600085815260200190815260200160002061169e90919063ffffffff16565b505050565b630100001481565b6801000000030000000181565b61080181565b61154482826117ef565b5050565b6000611570836000018373ffffffffffffffffffffffffffffffffffffffff1660001b6118cf565b905092915050565b60007f7965db0b000000000000000000000000000000000000000000000000000000007bffffffffffffffffffffffffffffffffffffffffffffffffffffffff1916827bffffffffffffffffffffffffffffffffffffffffffffffffffffffff191614806115eb57506115ea8261193f565b5b9050919050565b6115fb8261090f565b61160c816116076116ce565b6116d6565b61161683836117ef565b505050565b6116236116ce565b73ffffffffffffffffffffffffffffffffffffffff168173ffffffffffffffffffffffffffffffffffffffff1614611690576040517f08c379a00000000000000000000000000000000000000000000000000000000081526004016116879061253e565b60405180910390fd5b61169a82826119a9565b5050565b60006116c6836000018373ffffffffffffffffffffffffffffffffffffffff1660001b611a8a565b905092915050565b600033905090565b6116e08282610c9d565b61176f576117058173ffffffffffffffffffffffffffffffffffffffff166014611c10565b6117138360001c6020611c10565b604051602001611724929190612416565b6040516020818303038152906040526040517f08c379a000000000000000000000000000000000000000000000000000000000815260040161176691906124bc565b60405180910390fd5b5050565b6001816000016000828254019250508190555050565b600081600001549050919050565b60006117a68360000183611f0a565b60001c905092915050565b60006117bf82600001611f5b565b9050919050565b6117cf8261090f565b6117e0816117db6116ce565b6116d6565b6117ea83836119a9565b505050565b6117f98282610c9d565b6118cb57600160008084815260200190815260200160002060000160008373ffffffffffffffffffffffffffffffffffffffff1673ffffffffffffffffffffffffffffffffffffffff16815260200190815260200160002060006101000a81548160ff0219169083151502179055506118706116ce565b73ffffffffffffffffffffffffffffffffffffffff168173ffffffffffffffffffffffffffffffffffffffff16837f2f8788117e7eff1d82e926ec794901d17c78024a50270940304540a733656f0d60405160405180910390a45b5050565b60006118db8383611f6c565b611934578260000182908060018154018082558091505060019003906000526020600020016000909190919091505582600001805490508360010160008481526020019081526020016000208190555060019050611939565b600090505b92915050565b60007f01ffc9a7000000000000000000000000000000000000000000000000000000007bffffffffffffffffffffffffffffffffffffffffffffffffffffffff1916827bffffffffffffffffffffffffffffffffffffffffffffffffffffffff1916149050919050565b6119b38282610c9d565b15611a8657600080600084815260200190815260200160002060000160008373ffffffffffffffffffffffffffffffffffffffff1673ffffffffffffffffffffffffffffffffffffffff16815260200190815260200160002060006101000a81548160ff021916908315150217905550611a2b6116ce565b73ffffffffffffffffffffffffffffffffffffffff168173ffffffffffffffffffffffffffffffffffffffff16837ff6391f5c32d9c69d2a47ea670b442974b53935d1edc7fd64eb21e047a839171b60405160405180910390a45b5050565b60008083600101600084815260200190815260200160002054905060008114611c04576000600182611abc919061266b565b9050600060018660000180549050611ad4919061266b565b9050818114611b8f576000866000018281548110611b1b577f4e487b7100000000000000000000000000000000000000000000000000000000600052603260045260246000fd5b9060005260206000200154905080876000018481548110611b65577f4e487b7100000000000000000000000000000000000000000000000000000000600052603260045260246000fd5b90600052602060002001819055508387600101600083815260200190815260200160002081905550505b85600001805480611bc9577f4e487b7100000000000000000000000000000000000000000000000000000000600052603160045260246000fd5b600190038181906000526020600020016000905590558560010160008681526020019081526020016000206000905560019350505050611c0a565b60009150505b92915050565b606060006002836002611c239190612611565b611c2d91906125bb565b67ffffffffffffffff811115611c6c577f4e487b7100000000000000000000000000000000000000000000000000000000600052604160045260246000fd5b6040519080825280601f01601f191660200182016040528015611c9e5781602001600182028036833780820191505090505b5090507f300000000000000000000000000000000000000000000000000000000000000081600081518110611cfc577f4e487b7100000000000000000000000000000000000000000000000000000000600052603260045260246000fd5b60200101907effffffffffffffffffffffffffffffffffffffffffffffffffffffffffffff1916908160001a9053507f780000000000000000000000000000000000000000000000000000000000000081600181518110611d86577f4e487b7100000000000000000000000000000000000000000000000000000000600052603260045260246000fd5b60200101907effffffffffffffffffffffffffffffffffffffffffffffffffffffffffffff1916908160001a90535060006001846002611dc69190612611565b611dd091906125bb565b90505b6001811115611ebc577f3031323334353637383961626364656600000000000000000000000000000000600f861660108110611e38577f4e487b7100000000000000000000000000000000000000000000000000000000600052603260045260246000fd5b1a60f81b828281518110611e75577f4e487b7100000000000000000000000000000000000000000000000000000000600052603260045260246000fd5b60200101907effffffffffffffffffffffffffffffffffffffffffffffffffffffffffffff1916908160001a905350600485901c945080611eb590612799565b9050611dd3565b5060008414611f00576040517f08c379a0000000000000000000000000000000000000000000000000000000008152600401611ef7906124de565b60405180910390fd5b8091505092915050565b6000826000018281548110611f48577f4e487b7100000000000000000000000000000000000000000000000000000000600052603260045260246000fd5b9060005260206000200154905092915050565b600081600001805490509050919050565b600080836001016000848152602001908152602001600020541415905092915050565b6040518060c0016040528060006002811115611fd4577f4e487b7100000000000000000000000000000000000000000000000000000000600052602160045260246000fd5b8152602001600073ffffffffffffffffffffffffffffffffffffffff168152602001600081526020016000815260200160008152602001600081525090565b60008135905061202281612962565b92915050565b60008135905061203781612979565b92915050565b60008135905061204c81612990565b92915050565b600081359050612061816129a7565b92915050565b600081359050612076816129b7565b92915050565b6000806040838503121561208f57600080fd5b600061209d85828601612013565b92505060206120ae85828601612067565b9150509250929050565b6000602082840312156120ca57600080fd5b60006120d884828501612028565b91505092915050565b600080604083850312156120f457600080fd5b600061210285828601612028565b925050602061211385828601612013565b9150509250929050565b6000806040838503121561213057600080fd5b600061213e85828601612028565b925050602061214f85828601612067565b9150509250929050565b60006020828403121561216b57600080fd5b60006121798482850161203d565b91505092915050565b60006020828403121561219457600080fd5b60006121a284828501612067565b91505092915050565b600080604083850312156121be57600080fd5b60006121cc85828601612067565b92505060206121dd85828601612052565b9150509250929050565b6121f08161269f565b82525050565b6121ff8161269f565b82525050565b61220e816126b1565b82525050565b61221d816126bd565b82525050565b61222c81612730565b82525050565b61223b81612754565b82525050565b600061224c82612594565b612256818561259f565b9350612266818560208601612766565b61226f81612821565b840191505092915050565b600061228582612594565b61228f81856125b0565b935061229f818560208601612766565b80840191505092915050565b60006122b860208361259f565b91506122c382612832565b602082019050919050565b60006122db60178361259f565b91506122e68261285b565b602082019050919050565b60006122fe60208361259f565b915061230982612884565b602082019050919050565b60006123216017836125b0565b915061232c826128ad565b601782019050919050565b60006123446011836125b0565b915061234f826128d6565b601182019050919050565b6000612367602f8361259f565b9150612372826128ff565b604082019050919050565b60c0820160008201516123936000850182612232565b5060208201516123a660208501826121e7565b5060408201516123b960408501826123f8565b5060608201516123cc60608501826123f8565b5060808201516123df60808501826123f8565b5060a08201516123f260a08501826123f8565b50505050565b61240181612726565b82525050565b61241081612726565b82525050565b600061242182612314565b915061242d828561227a565b915061243882612337565b9150612444828461227a565b91508190509392505050565b600060208201905061246560008301846121f6565b92915050565b60006020820190506124806000830184612205565b92915050565b600060208201905061249b6000830184612214565b92915050565b60006020820190506124b66000830184612223565b92915050565b600060208201905081810360008301526124d68184612241565b905092915050565b600060208201905081810360008301526124f7816122ab565b9050919050565b60006020820190508181036000830152612517816122ce565b9050919050565b60006020820190508181036000830152612537816122f1565b9050919050565b600060208201905081810360008301526125578161235a565b9050919050565b600060c082019050612573600083018461237d565b92915050565b600060208201905061258e6000830184612407565b92915050565b600081519050919050565b600082825260208201905092915050565b600081905092915050565b60006125c682612726565b91506125d183612726565b9250827fffffffffffffffffffffffffffffffffffffffffffffffffffffffffffffffff03821115612606576126056127c3565b5b828201905092915050565b600061261c82612726565b915061262783612726565b9250817fffffffffffffffffffffffffffffffffffffffffffffffffffffffffffffffff04831182151516156126605761265f6127c3565b5b828202905092915050565b600061267682612726565b915061268183612726565b925082821015612694576126936127c3565b5b828203905092915050565b60006126aa82612706565b9050919050565b60008115159050919050565b6000819050919050565b60007fffffffff0000000000000000000000000000000000000000000000000000000082169050919050565b60008190506127018261294e565b919050565b600073ffffffffffffffffffffffffffffffffffffffff82169050919050565b6000819050919050565b600061273b82612742565b9050919050565b600061274d82612706565b9050919050565b600061275f826126f3565b9050919050565b60005b83811015612784578082015181840152602081019050612769565b83811115612793576000848401525b50505050565b60006127a482612726565b915060008214156127b8576127b76127c3565b5b600182039050919050565b7f4e487b7100000000000000000000000000000000000000000000000000000000600052601160045260246000fd5b7f4e487b7100000000000000000000000000000000000000000000000000000000600052602160045260246000fd5b6000601f19601f8301169050919050565b7f537472696e67733a20686578206c656e67746820696e73756666696369656e74600082015250565b7f4d756c74695369673a20616c726561647920766f746564000000000000000000600082015250565b7f4d756c74695369673a206e6f7420612072756e6e696e672070726f706f73616c600082015250565b7f416363657373436f6e74726f6c3a206163636f756e7420000000000000000000600082015250565b7f206973206d697373696e6720726f6c6520000000000000000000000000000000600082015250565b7f416363657373436f6e74726f6c3a2063616e206f6e6c792072656e6f756e636560008201527f20726f6c657320666f722073656c660000000000000000000000000000000000602082015250565b6003811061295f5761295e6127f2565b5b50565b61296b8161269f565b811461297657600080fd5b50565b612982816126bd565b811461298d57600080fd5b50565b612999816126c7565b81146129a457600080fd5b50565b600281106129b457600080fd5b50565b6129c081612726565b81146129cb57600080fd5b5056fea264697066735822122005ef9866c74cafca2f00333c0f2de0bb35a1c37571a3e3d6740875c083d2d11f64736f6c63430008020033",
  "linkReferences": {},
  "deployedLinkReferences": {}
}